{
  "contractName": "Blog",
  "abi": [
    {
      "inputs": [],
      "stateMutability": "nonpayable",
      "type": "constructor"
    },
    {
      "inputs": [],
      "name": "BlogPostCounter",
      "outputs": [
        {
          "internalType": "uint256",
          "name": "",
          "type": "uint256"
        }
      ],
      "stateMutability": "view",
      "type": "function",
      "constant": true
    },
    {
      "inputs": [],
      "name": "CommentCounter",
      "outputs": [
        {
          "internalType": "uint256",
          "name": "",
          "type": "uint256"
        }
      ],
      "stateMutability": "view",
      "type": "function",
      "constant": true
    },
    {
      "inputs": [
        {
          "internalType": "uint256",
          "name": "",
          "type": "uint256"
        }
      ],
      "name": "blog",
      "outputs": [
        {
          "internalType": "uint256",
          "name": "id",
          "type": "uint256"
        },
        {
          "internalType": "string",
          "name": "Title",
          "type": "string"
        },
        {
          "internalType": "string",
          "name": "Article",
          "type": "string"
        },
        {
          "internalType": "uint256",
          "name": "View",
          "type": "uint256"
        }
      ],
      "stateMutability": "view",
      "type": "function",
      "constant": true
    },
    {
      "inputs": [
        {
          "internalType": "uint256",
          "name": "",
          "type": "uint256"
        }
      ],
      "name": "comment",
      "outputs": [
        {
          "internalType": "uint256",
          "name": "id",
          "type": "uint256"
        },
        {
          "internalType": "uint256",
          "name": "Postid",
          "type": "uint256"
        },
        {
          "internalType": "string",
          "name": "Comment",
          "type": "string"
        },
        {
          "internalType": "address",
          "name": "User",
          "type": "address"
        }
      ],
      "stateMutability": "view",
      "type": "function",
      "constant": true
    },
    {
      "inputs": [
        {
          "internalType": "string",
          "name": "title",
          "type": "string"
        },
        {
          "internalType": "string",
          "name": "article",
          "type": "string"
        }
      ],
      "name": "CreatePost",
      "outputs": [],
      "stateMutability": "nonpayable",
      "type": "function"
    },
    {
      "inputs": [
        {
          "internalType": "uint256",
          "name": "id",
          "type": "uint256"
        }
      ],
      "name": "GetSinglePost",
      "outputs": [
        {
          "components": [
            {
              "internalType": "uint256",
              "name": "id",
              "type": "uint256"
            },
            {
              "internalType": "string",
              "name": "Title",
              "type": "string"
            },
            {
              "internalType": "string",
              "name": "Article",
              "type": "string"
            },
            {
              "internalType": "uint256",
              "name": "View",
              "type": "uint256"
            }
          ],
          "internalType": "struct Blog.BlogPost",
          "name": "",
          "type": "tuple"
        }
      ],
      "stateMutability": "nonpayable",
      "type": "function"
    },
    {
      "inputs": [
        {
          "internalType": "uint256",
          "name": "id",
          "type": "uint256"
        }
      ],
      "name": "GetSinglePostNoTx",
      "outputs": [
        {
          "components": [
            {
              "internalType": "uint256",
              "name": "id",
              "type": "uint256"
            },
            {
              "internalType": "string",
              "name": "Title",
              "type": "string"
            },
            {
              "internalType": "string",
              "name": "Article",
              "type": "string"
            },
            {
              "internalType": "uint256",
              "name": "View",
              "type": "uint256"
            }
          ],
          "internalType": "struct Blog.BlogPost",
          "name": "",
          "type": "tuple"
        }
      ],
      "stateMutability": "view",
      "type": "function",
      "constant": true
    },
    {
      "inputs": [
        {
          "internalType": "uint256",
          "name": "postid",
          "type": "uint256"
        },
        {
          "internalType": "string",
          "name": "usercomment",
          "type": "string"
        }
      ],
      "name": "PostComment",
      "outputs": [],
      "stateMutability": "nonpayable",
      "type": "function"
    }
  ],
  "bytecode": "0x60806040526000805560006001553480156200001a57600080fd5b50620000976040518060400160405280600b81526020017f48656c6c6f20776f726c640000000000000000000000000000000000000000008152506040518060400160405280601581526020017f74686973206973206d7920666972737420706f737400000000000000000000008152506200009d60201b60201c565b620002e3565b600080815480929190620000b19062000230565b919050555060405180608001604052806000548152602001838152602001828152602001600081525060026000805481526020019081526020016000206000820151816000015560208201518160010190805190602001906200011692919062000147565b5060408201518160020190805190602001906200013592919062000147565b50606082015181600301559050505050565b8280546200015590620002ad565b90600052602060002090601f016020900481019282620001795760008555620001c5565b82601f106200019457805160ff1916838001178555620001c5565b82800160010185558215620001c5579182015b82811115620001c4578251825591602001919060010190620001a7565b5b509050620001d49190620001d8565b5090565b5b80821115620001f3576000816000905550600101620001d9565b5090565b7f4e487b7100000000000000000000000000000000000000000000000000000000600052601160045260246000fd5b6000819050919050565b60006200023d8262000226565b91507fffffffffffffffffffffffffffffffffffffffffffffffffffffffffffffffff821415620002735762000272620001f7565b5b600182019050919050565b7f4e487b7100000000000000000000000000000000000000000000000000000000600052602260045260246000fd5b60006002820490506001821680620002c657607f821691505b60208210811415620002dd57620002dc6200027e565b5b50919050565b6110a280620002f36000396000f3fe608060405234801561001057600080fd5b50600436106100875760003560e01c806356d6962b1161005b57806356d6962b146101175780635726d166146101475780637a8d157e14610177578063c887c07f1461019357610087565b8062981cc91461008c578063294f6446146100bf5780632c8b5dbb146100db578063460c2d6b146100f9575b600080fd5b6100a660048036038101906100a19190610ad5565b6101c6565b6040516100b69493929190610beb565b60405180910390f35b6100d960048036038101906100d49190610d6c565b61029e565b005b6100e3610389565b6040516100f09190610dc8565b60405180910390f35b61010161038f565b60405161010e9190610dc8565b60405180910390f35b610131600480360381019061012c9190610ad5565b610395565b60405161013e9190610ea6565b60405180910390f35b610161600480360381019061015c9190610ad5565b6104fa565b60405161016e9190610ea6565b60405180910390f35b610191600480360381019061018c9190610ec8565b610668565b005b6101ad60048036038101906101a89190610ad5565b61070c565b6040516101bd9493929190610f40565b60405180910390f35b60036020528060005260406000206000915090508060000154908060010154908060020180546101f590610fc2565b80601f016020809104026020016040519081016040528092919081815260200182805461022190610fc2565b801561026e5780601f106102435761010080835404028352916020019161026e565b820191906000526020600020905b81548152906001019060200180831161025157829003601f168201915b5050505050908060030160009054906101000a900473ffffffffffffffffffffffffffffffffffffffff16905084565b600160008154809291906102b190611023565b91905055506000339050604051806080016040528060015481526020018481526020018381526020018273ffffffffffffffffffffffffffffffffffffffff16815250600360006001548152602001908152602001600020600082015181600001556020820151816001015560408201518160020190805190602001906103399291906109c0565b5060608201518160030160006101000a81548173ffffffffffffffffffffffffffffffffffffffff021916908373ffffffffffffffffffffffffffffffffffffffff160217905550905050505050565b60005481565b60015481565b61039d610a46565b60026000838152602001908152602001600020604051806080016040529081600082015481526020016001820180546103d590610fc2565b80601f016020809104026020016040519081016040528092919081815260200182805461040190610fc2565b801561044e5780601f106104235761010080835404028352916020019161044e565b820191906000526020600020905b81548152906001019060200180831161043157829003601f168201915b5050505050815260200160028201805461046790610fc2565b80601f016020809104026020016040519081016040528092919081815260200182805461049390610fc2565b80156104e05780601f106104b5576101008083540402835291602001916104e0565b820191906000526020600020905b8154815290600101906020018083116104c357829003601f168201915b505050505081526020016003820154815250509050919050565b610502610a46565b61050b8261084c565b600260008381526020019081526020016000206040518060800160405290816000820154815260200160018201805461054390610fc2565b80601f016020809104026020016040519081016040528092919081815260200182805461056f90610fc2565b80156105bc5780601f10610591576101008083540402835291602001916105bc565b820191906000526020600020905b81548152906001019060200180831161059f57829003601f168201915b505050505081526020016002820180546105d590610fc2565b80601f016020809104026020016040519081016040528092919081815260200182805461060190610fc2565b801561064e5780601f106106235761010080835404028352916020019161064e565b820191906000526020600020905b81548152906001019060200180831161063157829003601f168201915b505050505081526020016003820154815250509050919050565b60008081548092919061067a90611023565b919050555060405180608001604052806000548152602001838152602001828152602001600081525060026000805481526020019081526020016000206000820151816000015560208201518160010190805190602001906106dd9291906109c0565b5060408201518160020190805190602001906106fa9291906109c0565b50606082015181600301559050505050565b600260205280600052604060002060009150905080600001549080600101805461073590610fc2565b80601f016020809104026020016040519081016040528092919081815260200182805461076190610fc2565b80156107ae5780601f10610783576101008083540402835291602001916107ae565b820191906000526020600020905b81548152906001019060200180831161079157829003601f168201915b5050505050908060020180546107c390610fc2565b80601f01602080910402602001604051908101604052809291908181526020018280546107ef90610fc2565b801561083c5780601f106108115761010080835404028352916020019161083c565b820191906000526020600020905b81548152906001019060200180831161081f57829003601f168201915b5050505050908060030154905084565b6000600260008381526020019081526020016000206040518060800160405290816000820154815260200160018201805461088690610fc2565b80601f01602080910402602001604051908101604052809291908181526020018280546108b290610fc2565b80156108ff5780601f106108d4576101008083540402835291602001916108ff565b820191906000526020600020905b8154815290600101906020018083116108e257829003601f168201915b5050505050815260200160028201805461091890610fc2565b80601f016020809104026020016040519081016040528092919081815260200182805461094490610fc2565b80156109915780601f1061096657610100808354040283529160200191610991565b820191906000526020600020905b81548152906001019060200180831161097457829003601f168201915b5050505050815260200160038201548152505090508060600180518091906109b890611023565b815250505050565b8280546109cc90610fc2565b90600052602060002090601f0160209004810192826109ee5760008555610a35565b82601f10610a0757805160ff1916838001178555610a35565b82800160010185558215610a35579182015b82811115610a34578251825591602001919060010190610a19565b5b509050610a429190610a6e565b5090565b6040518060800160405280600081526020016060815260200160608152602001600081525090565b5b80821115610a87576000816000905550600101610a6f565b5090565b6000604051905090565b600080fd5b600080fd5b6000819050919050565b610ab281610a9f565b8114610abd57600080fd5b50565b600081359050610acf81610aa9565b92915050565b600060208284031215610aeb57610aea610a95565b5b6000610af984828501610ac0565b91505092915050565b610b0b81610a9f565b82525050565b600081519050919050565b600082825260208201905092915050565b60005b83811015610b4b578082015181840152602081019050610b30565b83811115610b5a576000848401525b50505050565b6000601f19601f8301169050919050565b6000610b7c82610b11565b610b868185610b1c565b9350610b96818560208601610b2d565b610b9f81610b60565b840191505092915050565b600073ffffffffffffffffffffffffffffffffffffffff82169050919050565b6000610bd582610baa565b9050919050565b610be581610bca565b82525050565b6000608082019050610c006000830187610b02565b610c0d6020830186610b02565b8181036040830152610c1f8185610b71565b9050610c2e6060830184610bdc565b95945050505050565b600080fd5b600080fd5b7f4e487b7100000000000000000000000000000000000000000000000000000000600052604160045260246000fd5b610c7982610b60565b810181811067ffffffffffffffff82111715610c9857610c97610c41565b5b80604052505050565b6000610cab610a8b565b9050610cb78282610c70565b919050565b600067ffffffffffffffff821115610cd757610cd6610c41565b5b610ce082610b60565b9050602081019050919050565b82818337600083830152505050565b6000610d0f610d0a84610cbc565b610ca1565b905082815260208101848484011115610d2b57610d2a610c3c565b5b610d36848285610ced565b509392505050565b600082601f830112610d5357610d52610c37565b5b8135610d63848260208601610cfc565b91505092915050565b60008060408385031215610d8357610d82610a95565b5b6000610d9185828601610ac0565b925050602083013567ffffffffffffffff811115610db257610db1610a9a565b5b610dbe85828601610d3e565b9150509250929050565b6000602082019050610ddd6000830184610b02565b92915050565b610dec81610a9f565b82525050565b600082825260208201905092915050565b6000610e0e82610b11565b610e188185610df2565b9350610e28818560208601610b2d565b610e3181610b60565b840191505092915050565b6000608083016000830151610e546000860182610de3565b5060208301518482036020860152610e6c8282610e03565b91505060408301518482036040860152610e868282610e03565b9150506060830151610e9b6060860182610de3565b508091505092915050565b60006020820190508181036000830152610ec08184610e3c565b905092915050565b60008060408385031215610edf57610ede610a95565b5b600083013567ffffffffffffffff811115610efd57610efc610a9a565b5b610f0985828601610d3e565b925050602083013567ffffffffffffffff811115610f2a57610f29610a9a565b5b610f3685828601610d3e565b9150509250929050565b6000608082019050610f556000830187610b02565b8181036020830152610f678186610b71565b90508181036040830152610f7b8185610b71565b9050610f8a6060830184610b02565b95945050505050565b7f4e487b7100000000000000000000000000000000000000000000000000000000600052602260045260246000fd5b60006002820490506001821680610fda57607f821691505b60208210811415610fee57610fed610f93565b5b50919050565b7f4e487b7100000000000000000000000000000000000000000000000000000000600052601160045260246000fd5b600061102e82610a9f565b91507fffffffffffffffffffffffffffffffffffffffffffffffffffffffffffffffff82141561106157611060610ff4565b5b60018201905091905056fea2646970667358221220ab58979c262b9ca246f9693f1656c4682882d152f4e97b1f0fb2572abee0e5ec64736f6c634300080a0033",
  "immutableReferences": {},
  "source": "pragma solidity ^0.8.10;\n\n\ncontract Blog {\n    constructor() public{\n        CreatePost('Hello world','this is my first post');\n    }\n    uint public BlogPostCounter = 0;\n    uint public CommentCounter = 0;\n    \n\n    struct BlogPost{\n        uint id;\n        string Title;\n        string Article; \n        uint View;\n    }\n\n    struct UserComment{\n        uint id;\n        uint256 Postid;\n        string Comment;\n        address User;\n    }\n    mapping(uint=>BlogPost)  public blog;\n    mapping(uint=>UserComment) public comment;\n \n    \n\n    function CreatePost(string memory title, string memory article)public {\n        BlogPostCounter ++;\n        blog[BlogPostCounter] = BlogPost(BlogPostCounter,title,article,0);\n    }\n\n    function AddView(uint id) internal {\n        BlogPost memory singlepost = blog[id];\n        singlepost.View++;}\n\n    function GetSinglePost(uint id)public returns(BlogPost memory){\n        AddView(id);\n        return blog[id];\n    }\n\n    function GetSinglePostNoTx(uint id)public view returns(BlogPost memory){\n        return blog[id];\n    }\n\n    function PostComment(uint256 postid, string memory usercomment) public{\n        CommentCounter ++;\n        address user = msg.sender;\n        comment[CommentCounter] = UserComment(CommentCounter,postid,usercomment,user);\n    }\n\n\n}\n",
  "sourcePath": "/Users/ironside/Desktop/clients/allwork/blog/contracts/Blog.sol",
  "compiler": {
    "name": "solc",
    "version": "0.8.10+commit.fc410830.Emscripten.clang"
  },
  "schemaVersion": "3.4.4",
  "updatedAt": "2022-01-19T18:00:33.963Z",
  "networkType": "ethereum",
  "devdoc": {
    "kind": "dev",
    "methods": {},
    "version": 1
  },
  "userdoc": {
    "kind": "user",
    "methods": {},
    "version": 1
  }
}